:1000000075300875310475320275330102000F75C1
:10001000892175880075984075870075A80075B8A6
:1000200000758DFE7833790112005020B2F8D29C11
:10003000D28E3098FDC298E599547FF9E5995480A5
:100040006002700612005002003212007402003288
:10005000C2908680187B02758C26758AFBD28C3004
:100060008DFDC28CC28D1BBB00EDB82F02A833D909
:10007000DFD29022C2908680087B02758C26758A1A
:10008000FBD28C308DFDC28CC28D1BBB00EDB83411
:0800900002A830D9DFD2902252
:00000001FF
